:020000040800F2
:10000000B8FD00205D0400086102000863020008DA
:10001000670200086B0200086F0200080000000081
:100020000000000000000000000000007302000853
:10003000750200080000000077020008790200083D
:10004000770400087704000877040008A712000866
:100050007704000877040008770400087704000894
:100060007704000877040008770400087704000884
:100070007704000877040008770400087704000874
:100080007704000877040008770400087704000864
:100090007704000877040008770400081F0E0008A2
:1000A0007704000877040008770400087704000844
:1000B00077040008EF06000889400008770400086C
:1000C0007704000877040008770400087704000824
:1000D0007704000809060008770400087704000880
:1000E0007704000877040008770400087704000804
:1000F00077040008770400087704000877040008F4
:1001000077040008770400087704000877040008E3
:1001100077040008770400087704000877040008D3
:1001200077040008770400087704000877040008C3
:10013000DFF80CD010F028FA00480047B50100089D
:10014000B8FD00203EB52C482C4908606FF07F4078
:100150002B4908602B482C49086004F047FF2B48C6
:100160002B490022284BCDE900210290244A234943
:10017000284805F0DFFC0446264805F0C7FD84B199
:10018000244890F8290040F00400224981F8290011
:1001900094F8291020A010F091FA1E4805F0D5FE21
:1001A00007E023A010F08AFA1A4805F0B4FD00BF5A
:1001B000FEE73EBD00F064F94FF4A06001F014F9D1
:1001C0004FF4E13000F0D4F940F2CF2140F2E730B3
:1001D00000F060FA002003F01EFBFFF7B3FF10F001
:1001E00049F807E018A010F069FA0A480FF08AFFF2
:1001F0000CF03BFDF6E70000C0A8017A00000020EB
:1002000004000020C0A80101080000200DFF000824
:10021000310101087C0200206E65746966206973F3
:10022000207365743A25642121210D0A0000000025
:100230006E65746966206973206E6F7420736574CF
:100240002121210D0A0000004C57495020697320DC
:10025000576F726B696E672121210D0A0000000043
:10026000704700BFFEE700BFFEE700BFFEE700BF2C
:10027000FEE7704770477047704700000CB50020DC
:10028000019000906C48006840F480306A49086032
:1002900000BF6948006800F4003000900198401CDD
:1002A0000190009818B90198B0F5A06FF1D162489B
:1002B000006800F4003010B10120009001E000203F
:1002C00000900098012843D15C48006840F010007D
:1002D0005A4908600846006820F003000860084694
:1002E000006840F002000860534840685249486086
:1002F0000846406848600846406840F480604860AE
:100300000846406820F47C1048600846406840F485
:10031000E81048600846006840F08070086000BF40
:100320004548006800F000700028F9D04248406855
:1003300020F00300404948600846406840F0020051
:10034000486000BF3C48406800F00C000828F9D124
:100350000CBD10B5FFF792FF10BD10B53648006810
:1003600040F00100344908600846406834490840BC
:100370003149486008460068324908402E49086003
:100380000846006820F4802008600846406820F491
:10039000FE0048604FF41F008860FFF7DAFF4FF05F
:1003A00000602949086010BD10B50021002000221E
:1003B000214B5B6803F00C0121B1042906D0082908
:1003C00028D107E0214B224C236027E01F4B204C13
:1003D000236023E0184B5B6803F47010164B5B68D6
:1003E00003F48032022303EB904022B9194B4343BC
:1003F000174C23600DE0104B5B6803F4003323B10E
:10040000144B4343124C236003E0104B4343104C06
:10041000236003E00D4B0E4C236000BF00BF064B72
:100420005B68C3F303130C4CE15C094B1B68CB40C6
:10043000074C236010BD0000001002400020024065
:100440000000FFF8FFFFF6FE08ED00E000127A0062
:100450001800002000093D001C00002006488047CD
:1004600006480047FEE7FEE7FEE7FEE7FEE7FEE799
:10047000FEE7FEE7FEE7FEE75B0300083101000848
:1004800010B56FF0040000F0FEFF2E4800682E4902
:10049000B0FBF1F02D4908700846007800EB4001F0
:1004A000C1EBC0104FF6FF7101EAC0002849088077
:1004B00010BD0146254A12784A434FF0E0235A61A5
:1004C00000229A611A46126942F001021A6100BFC5
:1004D0004FF0E022106900F001021AB100F48032FE
:1004E000002AF5D04FF0E022126922F001024FF00D
:1004F000E0231A6100229A6170470146144A12886B
:100500004A434FF0E0235A6100229A611A46126969
:1005100042F001021A6100BF4FF0E022106900F0C2
:1005200001021AB100F48032002AF5D04FF0E02227
:10053000126922F001024FF0E0231A6100229A6151
:10054000704700001800002000127A002C000020E4
:100550002E00002000BF704700BF4A4A128802F0F8
:100560004002002AF9D0C2B2464B1B1D1A807047C8
:1005700010B586B00446012144F2040001F0C4FD28
:100580004FF40070ADF8140003208DF81600182009
:100590008DF8170005A93C4801F0FAFA4FF4806085
:1005A000ADF8140004208DF8170005A9364801F0B5
:1005B000EFFA25208DF8000003208DF801008DF85A
:1005C000020001208DF80300684600F012FF01943C
:1005D0000020ADF80800ADF80A00ADF80C00ADF849
:1005E00010000C20ADF80E0001A9264802F041FDD4
:1005F000012240F22551234802F0D3FD0121214878
:1006000002F0C3FD06B010BD10B540F225511D48E3
:1006100002F0ACFE10B31B4802F028FEC4B21B4827
:10062000008800F40040C8B91848008800F48040F1
:1006300060B10A2C03D000201449088020E0134840
:10064000008840F400401149088019E00D2C06D1C3
:100650000E48008840F480400C49088010E00B48A8
:100660000088C0F30D000A490C5408480088401C5B
:100670000649088008460088C72801DD0020088058
:1006800010BD000000380140000801403400002087
:10069000AC0200207FB505460C460121022001F086
:1006A00040FDADF80850ADF804400020ADF80A0058
:1006B000ADF8060001A9184801F05EFE01221146BE
:1006C000154802F0D0F91D208DF8000001208DF8AA
:1006D000010003208DF8020001208DF80300684618
:1006E00000F087FE01210C4802F0A2F97FBD10B591
:1006F0000121094802F065FC012804D1074800687F
:100700000A30064908600121034802F06BFC10BD65
:1007100002480068704700000004004038000020D4
:10072000FA4A10804FF0C842A2F800117047014603
:10073000F64801804FF0C840B0F80001704770B52E
:10074000044644F040010C20FFF7EAFF0C210B2087
:10075000FFF7E6FF0A20FFF7D0FE00210B20FFF78E
:10076000DFFF0D20FFF7E3FF02460E20FFF7DFFF5C
:1007700042EA002085B2284670BD70B50024E448E6
:100780000078082811D108E06420FFF7B6FE601C4D
:10079000C4B2642C01DDFF2070BD0120FFF7CFFF44
:1007A00000F020000028EFD010E008E06420FFF700
:1007B000A4FE601CC4B2642C01DDFF20ECE7012024
:1007C000FFF7B5FF00F040000028EFD00120FFF751
:1007D000AEFF022101EAA0150020FFF7A8FFC0F339
:1007E000C00005432846D7E710B50446002306E0BD
:1007F000E15C03F11600FFF793FF581CC3B2082B0E
:10080000F6DB10BD10B50446002306E0E15C03F101
:100810001000FFF785FF581CC3B2062BF6DB10BD96
:1008200070B505460C4645F040010C20FFF778FFF7
:10083000E1B20D20FFF774FF210A0E20FFF770FFD1
:100840000A210B20FFF76CFF3220FFF756FE002134
:100850000B20FFF765FF70BD70B50646092E1BD251
:10086000DFE806F0050C1A1A08101A1A1500002401
:10087000212511E04FF4807441250DE04FF4005420
:10088000812509E04FF4045440F2011504E04FF4CF
:10089000805440F2E11500BF00BF21460020FFF761
:1008A000BFFF29460420FFF7BBFF00211F20FFF7F1
:1008B00037FF70BD00B52820FFF739FF0246292019
:1008C000FFF735FF42EA00222A20FFF730FF42EA15
:1008D00000422B20FFF72BFF42EA0062104600BDCA
:1008E00010B500208B4908600A20FFF706FE0120A2
:1008F0008949C1F89C016420FFF7FFFD01211E20FA
:10090000FFF70EFF00211F20FFF70AFF0321002041
:10091000FFF706FF00BF1920FFF7EFFD0020FFF7EC
:1009200006FF00F001000028F5D100210846FFF77E
:10093000F7FE03210020FFF7F3FE00BF1920FFF7A9
:10094000DCFD0020FFF7F3FE00F001000028F5D1E8
:1009500010BD10B59AB001214FF4F07001F0D4FB36
:100960000121080201F0C3FB0121084601F0CCFB84
:100970008020ADF8640003208DF8660010208DF80B
:10098000670019A9654801F003F94020ADF864003B
:1009900048208DF8670019A9614801F0F9F84CF278
:1009A0003370ADF8640003208DF8660018208DF8D0
:1009B000670019A9594801F0EBF84FF68070ADF8BF
:1009C000640003208DF8660018208DF8670019A9CF
:1009D000544801F0DDF84FF40050ADF864000320F6
:1009E0008DF8660018208DF8670019A94E4801F0AF
:1009F000CFF84FF40070ADF8640003208DF8660066
:100A000018208DF8670019A9454801F0C1F80621A2
:100A1000084601F0D3F94020179000208DF86000BF
:100A20000C208DF8610001208DF8620017A802F0FB
:100A3000EFFC402002F063FD17208DF858000120E4
:100A40008DF8590000208DF85A0001208DF85B00C8
:100A500016A800F0CEFC0020009001900320029028
:100A6000002003900490059006900220079000203B
:100A70000890099010200A9000200B900C900D9087
:100A80000E900F904FF48050109000201190129013
:100A90001390CDF850D0CDF854D007A800F05EFDEB
:100AA0000121022000F0C2FE2048046808201849F5
:100AB00008700020488081204870022008710021C1
:100AC000134841718171210CC171210A0172447274
:100AD000FF200F498872FF210D48C17201734173D5
:100AE0008173C17301744174FFF7FAFE6420FFF74C
:100AF00004FDFFF7DFFE044621460DA00FF0DEFDEA
:100B00000F4884421ED001201AB010BDFE000064C0
:100B1000740300209C812242008022420014014084
:100B20000020014000180140001C0140E8F7FF1FB1
:100B3000444D393030302049443A2523780D0A009D
:100B4000460A0090BC490878FFF786FE0021084657
:100B5000FFF7E6FD00210220FFF7E2FD3F2108201C
:100B6000FFF7DEFD38210920FFF7DAFD00210A201A
:100B7000FFF7D6FD00212F20FFF7D2FD2C21012009
:100B8000FFF7CEFD0F21FE20FFF7CAFD80212D20AB
:100B9000FFF7C6FDA848001DFFF734FEA6480A303F
:100BA000FFF722FE31210520FFF7BAFD8021FF204B
:100BB000FFF7B6FDFFF7E1FD0446FF2C11D004F06E
:100BC000010008B19DA000E09EA0024604F00200D2
:100BD00008B10A2000E0642001469CA00FF06EFDE1
:100BE00002E0A5A00FF06AFD93484178FF20FFF7CF
:100BF00097FD00201AB010BD78B5034600260025E9
:100C00008021FF20FFF78CFDF820A34908801C46B7
:100C10001BE06089B04216DD3046711C8EB26268FE
:100C2000125C2846691CCDB20DF80020022D0CD1B3
:100C30009DF800009DF8011040EA01209649891CAA
:100C40000880002501E024680026002CE1D1012D58
:100C500004D19DF800009049891C0880197AFC2075
:100C6000FFF75EFD1889010AFD20FFF759FD0121FC
:100C70000220FFF755FD00BFFE20FFF758FD00F0F2
:100C800002000028F8D00221FE20FFF749FD6A4843
:100C90004178FF20FFF744FD78BD2DE9FE43002495
:100CA00000BFF020FFF743FD7B48801C0088C7B2DF
:100CB000002F7BD0012F0DD978A00FF0FFFC002171
:100CC0000520FFF72DFD8021FE20FFF729FD20469E
:100CD000BDE8FE83F220704908804FF0C840B0F8AC
:100CE00000010290881C008801904FF4C172BDF889
:100CF0000410002005F0AEFA0446A4B125460FE02A
:100D0000D5F804806E8908E04FF0C840B0F80001C3
:100D1000A8F8000008F10208B61E002EF4DC2D68C9
:100D2000002DEDD111E0BDF8041065A00FF0C6FC58
:100D3000E846BDF8046006E04FF0C840B0F8000196
:100D4000A8F80000B61E002EF6D1BDF8080000F489
:100D50003F4040B9BDF80400402804DBBDF8040062
:100D6000B0F5C06F3FDDBDF808105BA00FF0A6FC2A
:100D7000BDF8080000F4807010B15BA00FF09EFC7D
:100D8000BDF8080000F4007010B15BA00FF096FCF5
:100D9000BDF8080000F4004010B15BA00FF08EFC1D
:100DA000BDF80400B0F5C06F0BDD00E00FE05BA004
:100DB0000FF084FC01210020FFF7B2FC0520FFF7B3
:100DC0009CFB14B1204605F0B8F9002469E7022124
:100DD000FE20FFF7A5FC812017494870084641789E
:100DE000FF20FFF79DFC204672E770B52A48058872
:100DF000FE20FFF79CFC04462146FE20FFF790FCF6
:100E000004F0040010B14AA00FF058FC04F00800F0
:100E100010B14AA00FF052FC1F48058070BD10B5FC
:100E2000402002F06CFB01E0FFF7DFFF4B48006859
:100E30000028F9D010BD00007403002046756C6CCA
:100E40000000000048616C6600000000444D39302D
:100E500030302053706565643A25644D6270732CA0
:100E60004475706C65783A2573206475706C65788C
:100E7000206D6F64650D0A00444D393030302045D7
:100E8000737461626C697368204C696E6B20466193
:100E9000696C6564210D0A00FE000064646D3930E0
:100EA00030302072783A207278206572726F722C1E
:100EB0002073746F70206465766963650D0A0000A5
:100EC00070627566C4DAB4E6C9EAC7EBCAA7B0DCDB
:100ED0003A25640D0A00000072785F7374617475BE
:100EE000733A2523780D0A007278206669666F20B0
:100EF0006572726F720D0A007278206372632065EA
:100F000072726F720D0A00007278206C656E6774E1
:100F100068206572726F720D0A0000007278206C92
:100F2000656E67746820746F6F206269670D0A00D0
:100F30006F766572666C6F77200D0A006F7665724A
:100F4000666C6F7720636F756E746572206F76655F
:100F500072666C6F77200D0A0000000018012442B1
:100F600008B503208DF8000000208DF801008DF8F1
:100F7000020001208DF80300684600F03AFA08BD2F
:100F8000F0B503460C461546642093FBF0F0C6B25C
:100F9000642093FBF0F700FB1730C1B2132E02DD83
:100FA00001F16400C1B20846CF1701EB977701EB5E
:100FB000A707BAB2072092FBF0F700FB172082B216
:100FC0005719601EDFF8E4C31CF80000384482B2F1
:100FD000CF1701EB9777BF10A1EB87071FB9032C41
:100FE00001DA501E82B2072092FBF0F700FB1720B7
:100FF000C0B2F0BD0146CA1701EB92729210A1EB8C
:10100000820292B9642091FBF0F200FB121050B9F9
:101010004FF4C87091FBF0F200FB121008B90120E8
:1010200070470020FCE70120FAE70020F8E770B5E0
:1010300000260024002502F053FB0646DC48B6FBE0
:10104000F0F4DC480088A0423CD0DA490C8040F241
:10105000B27510E02846FFF7CDFF40B1B4F5B77F79
:1010600002D3A4F5B77404E0681C85B206E0A4F2CC
:101070006D14681C85B2B4F5B67FEBD800BFCE48BE
:101080008580002516E0CC498888FFF7B3FF30B192
:10109000012D04D11D2C01D31D3C09E00CE0C748F3
:1010A000405DA04203D8C548405D241A00E003E03B
:1010B000681C85B21C2CE6D200BF681CBE49887132
:1010C000601CC871BA48B6FBF0F100FB11644FF424
:1010D0006160B4FBF0F0B84908704FF46160B4FB94
:1010E000F0F100FB11403C21B0FBF1F0B249487037
:1010F0004FF46160B4FBF0F100FB11403C21B0FB08
:10110000F1F201FB1200AC4988700B46DA7999794B
:101110009888FFF735FFA8490872002070BD2DE9B7
:10112000F05F06460F4690469946DDE90AAB00247B
:1011300040F2B270864203DB40F63300864202DDA5
:101140000120BDE8F09F40F2B2750AE02846FFF7A3
:1011500051FF10B19A48044401E09A480444681CC5
:1011600085B2B542F2DB781EC7B2002510E0934885
:10117000405D40F2A321484304EBC0143046FFF722
:1011800039FF18B1012D01D189480444681C85B28A
:10119000BD42ECDBA8F1010040F2A321484304EB7F
:1011A000C014C9EB4910C0EB092004EB0014CAEBD2
:1011B0000A1004EB80045C4401214FF0C05000F0A1
:1011C000B0FF012002F011FA204602F092FA02F07C
:1011D000C3FA0020B5E71CB5002401214FF0C05030
:1011E00000F09FFF012002F000FA042002F0C5F990
:1011F00045F25001884248D001214FF0C05000F024
:1012000090FF012002F0F1F902F082F9012000F0D4
:10121000E8FE04E0601CC4B20A20FFF76EF941202A
:1012200000F047FE08B9FA2CF4DBFA2C01DB0120B0
:101230001CBD4FF4807000F0F0FE012000F0F3FEC2
:1012400002F08AFA02F091FA0121084602F028FA27
:1012500002F082FA02F031FA47F6FF7002F056FA15
:1012600002F07AFA37202A2111230E22CDE900104C
:10127000012140F2DF70FFF752FF02F027FA45F23A
:101280005001042002F06DF907E002F06EFA01212E
:10129000084602F005FA02F05FFAFFF761FEFFF779
:1012A000C6FE0020C4E70EB5012002F083FA08B1A3
:1012B000FFF7BDFE022002F07DFAA0B1022002F08D
:1012C00089FAFFF7B4FE3C4880783B4949783A4AAE
:1012D0001278CDE9002102903748C379827981885C
:1012E00039A00FF0EBF9052002F074FA02F034FA9D
:1012F0000EBD2DE9F05F06460F4690469946DDE9A2
:101300000AAB002440F2B270864203DB40F63300A1
:10131000864202DD0120BDE8F09F40F2B2750AE08E
:101320002846FFF767FE10B12548044401E0254830
:101330000444681C85B2B542F2DB781EC7B20025B2
:1013400010E01E48405D40F2A321484304EBC01466
:101350003046FFF74FFE18B1012D01D11448044467
:10136000681C85B2BD42ECDBA8F1010040F2A3216C
:10137000484304EBC014C9EB4910C0EB092004EB4F
:101380000014CAEB0A1004EB80045C4401214FF006
:10139000C05000F0C6FE012002F027F9204602F0FE
:1013A000C3F902F0D9F90020B5E70000660B010887
:1013B000805101003C00002086030020720B0108D0
:1013C0000085E2018033E101416C61726D20546956
:1013D0006D653A25642D25642D25642025643A2504
:1013E000643A25640A00000031490143314A116022
:1013F000704770B5002100230F22C47804B32D4C30
:10140000246804F4E064C4F5E064210AC1F1040333
:10141000CA40447804FA03F1847814402143090156
:10142000254C0678A155047804F01F050124AC4032
:1014300005786D11AD0005F1E025C5F8004109E022
:10144000047804F01F050124AC401C4D0678761189
:1014500045F8264070BD1A4A0A400243154B1B1F2F
:101460001A60704739B1134A121D12680243114BBA
:101470001B1D1A6006E00F4A121D126882430D4BB5
:101480001B1D1A607047042808D14FF0E02109693C
:1014900041F004014FF0E022116107E04FF0E0213C
:1014A000096921F004014FF0E0221161704700004A
:1014B0000000FA050CED00E000E400E080E100E04F
:1014C00080FFFF1F30B943F2DB028100A1F1C04170
:1014D0000A6005E043F2D2028100A1F1C0410A6036
:1014E0006FF07042411C8900A1F1C0410A60810087
:1014F000A1F1C041C1F80421704710280AD1182178
:101500004FF020421166402151664FF0FC31916648
:10151000D16610E01821F74A116040214FF02042B7
:10152000C2F884104FF0FC31F24A083211604FF0DB
:101530002042C2F88C1070471820EE492031086014
:1015400000200906C1F8A4004FF0FC30E949283119
:101550000860091D0860091D08607047D0E9011284
:101560001143C26811430269114342691143826900
:101570001143C2691143026A1143426A1143826AEC
:101580001143C26A1143026B114302689200A2F137
:10159000C0421160816808290BD101688900A1F15E
:1015A000C041096841F0400201688900A1F1C041D1
:1015B0000A60416B0968426B526841EA0211426B52
:1015C000926841EA0221426B928941EA0241426BF0
:1015D000128A41EA0251426B127D41EA0261426B7A
:1015E000926911430268521C9200A2F1C04211603C
:1015F000C16AB1F5804F1BD1816B0968826B52685B
:1016000041EA0211826B926841EA0221826B128ADE
:1016100041EA0251826B127D41EA0261826B92695A
:10162000114302689200A2F1C042C2F8041107E01F
:101630006FF0704201688900A1F1C041C1F8042136
:10164000704730B5002100220023446844F00804AC
:1016500085682C43C5682C4305692C43456944EAD9
:101660004524856944EA4531C4692468C5696D68C3
:1016700044EA0524C5692D8944EA0544C5692D7BE2
:1016800044EA0562046A2468056A6D6844EA052430
:10169000056A2D8944EA0544056A2D7B44EA056301
:1016A0000468102C05D14FF020442166A266E36641
:1016B00008E0904C21604FF02044C4F888208D4C05
:1016C0000C34236030BD016841F01001426841EAEA
:1016D0004221826841EA4231864A20321160C16863
:1016E0000968C268526841EA0221C268128941EA67
:1016F0000241C268127B41EA02617E4A28321160CF
:10170000016909680269526841EA02210269128985
:1017100041EA02410269127B41EA0261754A2C32B8
:101720001160416909684269526841EA02214269CF
:10173000128941EA02414269127B41EA02614FF09B
:101740002042C2F8B01070470021016002214160C0
:1017500000218160C160016141618161C1610162FB
:101760004FF480514162490081620021C1620163EE
:101770000F21426B1160426B5160FF21426B9160FF
:101780000F21426BD160426B1161426B51610021AC
:10179000426B91610F21826B1160826B5160FF215E
:1017A000826B91600F21826BD160826B1161826BC1
:1017B00051610021826B916170471021016000210D
:1017C00041608160C160016141618161FC21C26948
:1017D0001160C2695160C2699160C269D160026AD8
:1017E0001160026A5160026A9160026AD1607047BA
:1017F0000021016041608160FC21C2681160C26803
:101800005160C2689160C268D1600269116002696A
:101810005160026991600269D16042691160426958
:101820005160426991604269D160704751B1820054
:10183000A2F1C042126842F001038200A2F1C0424C
:10184000136009E08200A2F1C04212682A4B1A40DC
:101850008300A3F1C0431A60704799B1102808D1E2
:101860004FF02042126E42F004024FF020431A66FD
:101870001DE0204A126842F004024FF02043C3F8F2
:10188000802014E0102809D14FF02042126E1A4B2C
:10189000DB1E1A404FF020431A6608E0154A126812
:1018A000154BDB1E1A404FF02043C3F880207047D1
:1018B00048B110492031096841F004014FF020423D
:1018C000C2F8A01009E00B49203109680A4AD21E6B
:1018D00011404FF02042C2F8A0107047B9B1102853
:1018E0000CD14FF02042126E42F040024FF02043E4
:1018F0001A661FE0800000A0FEFF0F00724A126807
:1019000042F040024FF02043C3F8802012E010283C
:1019100008D14FF02042126E6C4B1A404FF020431A
:101920001A6607E0684A1268684B1A404FF0204375
:10193000C3F88020704701460020102903D14FF0E2
:101940002042506F02E0604A14321068704710B5B0
:10195000F2B1102807D14FF020435B6E0B434FF0DC
:101960002044636632E0B0F5807F08D1564B1B1DE2
:101970001B680B434FF02044C4F8843026E0524BE0
:1019800024331B680B434FF02044C4F8A4301DE0FF
:10199000102807D14FF020435B6E8B434FF020445B
:1019A000636613E0B0F5807F08D1474B1B1D1B68B1
:1019B0008B434FF02044C4F8843007E0424B24337B
:1019C0001B688B434FF02044C4F8A43010BD10B501
:1019D000024600200023102A03D14FF02044636EFA
:1019E00009E0B2F5807F03D1374C241D236802E063
:1019F000354C2434236803EA01040CB1012000E0D3
:101A0000002010BD102807D14FF02042526E8A43AB
:101A10004FF020435A6613E0B0F5807F08D12A4A80
:101A2000121D12688A434FF02043C3F8842007E058
:101A3000254A243212688A434FF02043C3F8A42079
:101A4000704770B502460020002300240025102AAC
:101A500003D14FF02046736E09E0B2F5807F03D1C9
:101A6000194E361D336802E0174E2436336803EAF8
:101A7000010403EAD10514B10DB1012000E00020FA
:101A800070BD102808D14FF02042526E22EAD102D8
:101A90004FF020435A6615E0B0F5807F09D10A4A1D
:101AA000121D126822EAD1024FF02043C3F88420AD
:101AB00008E0054A2432126822EAD1024FF020439E
:101AC000C3F8A42070470000800000A0BFFF0F00F3
:101AD00010B50446CC48844208D10121042000F00E
:101AE0002DFB0021042000F029FB46E0C74884427A
:101AF00008D10121082000F021FB0021082000F07E
:101B00001DFB3AE0C248844208D10121102000F0B8
:101B100015FB0021102000F011FB2EE0BD4884428F
:101B200008D10121202000F009FB0021202000F035
:101B300005FB22E0B848844208D10121402000F092
:101B4000FDFA0021402000F0F9FA16E0B348844283
:101B500008D10121802000F0F1FA0021802000F05E
:101B6000EDFA0AE0AE48844207D10121801500F069
:101B7000E5FA0021A01500F0E1FA10BD10B5012131
:101B8000084600F0DBFA0021012000F0D7FA10BD72
:101B90002DE9F04102460025002600200023002404
:101BA000002791F803C00CF00F0591F803C00CF06A
:101BB000100CBCF1000F03D091F802C04CEA0505EF
:101BC00091F800C0BCF1000F31D0146800202BE068
:101BD0004FF0010C0CFA00F3B1F800C00CEA030658
:101BE0009E4220D183004FF00F0C0CFA03F7BC4348
:101BF00005FA03FC4CEA040491F803C0BCF1280F79
:101C000006D14FF0010C0CFA00FCC2F814C00AE037
:101C100091F803C0BCF1480F05D14FF0010C0CFA4C
:101C200000FCC2F810C0401C0828D1D31460B1F8E1
:101C300000C0BCF1FF0F34DD546800202EE000F13D
:101C4000080C4FF0010808FA0CF3B1F800C00CEAD8
:101C500003069E4221D183004FF00F0C0CFA03F7CC
:101C6000BC4305FA03FC4CEA040491F803C0BCF140
:101C7000280F05D100F1080C08FA0CF8C2F81480FE
:101C800091F803C0BCF1480F07D100F1080C4FF0E8
:101C9000010808FA0CF8C2F81080401C0828CED3BE
:101CA0005460BDE8F0814FF6FF7101800221817020
:101CB0000421C17070470246002093680B400BB1AD
:101CC000012000E0002070470146886880B270471C
:101CD00002460020D3680B400BB1012000E0002039
:101CE00070470146C86880B2704701617047416122
:101CF00070470AB1016100E041617047C1607047FF
:101D00004FF480320A438261816182618269826913
:101D1000704702460020434B18684FF68073184006
:101D200040EA021008433F4B186070473E49C861C3
:101D30007047F0B50A46002300240021002500F07A
:101D40000046B6F1004F02D1364EF16901E0354E42
:101D50007168C0F3034583B200F44016B6F5401F26
:101D600008D121F070612F4E766826F070662D4FF5
:101D70007E6012E000F48016B6F5801F06D10326BF
:101D800006FA05F4A14341F0706106E0460D360104
:101D900003FA06F6B14341F0706122B1460D3601F7
:101DA00003FA06F6314300F00046B6F1004F02D1C7
:101DB0001C4EF16101E01B4E7160F0BD30B5002298
:101DC0008B071C0F0F2303FA04F2164B08338C10F9
:101DD00053F824309343134C08348D1044F82530C5
:101DE00023468C1053F824308C07240F00FA04F497
:101DF00023430C4C08348D1044F8253030BD0A497B
:101E0000DC3108607047000000080140000C014010
:101E1000001001400014014000180140001C014066
:101E2000002001400000014000002042DF4800681F
:101E300040F00100DD49086008464068DC49084080
:101E4000DA49486008460068DA490840D74908601E
:101E50000846006820F4802008600846406820F4A6
:101E6000FE0048604FF41F0088607047CF49096842
:101E700021F48031CD4A11601146096821F4802196
:101E80001160B0F5803F03D0B0F5802F0ED106E091
:101E9000C649096841F48031C44A116007E0C3496A
:101EA000096841F4A021C14A116000E000BF00BFF1
:101EB000704710B501460022002300204A11012A74
:101EC00002D1BA4C236806E0022A02D1B74C236A39
:101ED00001E0B64C636A01F01F02012494401C40EB
:101EE0000CB1012000E0002010BD38B500200090AA
:101EF0000024002500BF3120FFF7DBFF05460098D6
:101F0000401C00900098B0F5A06F01D0002DF2D0D9
:101F10003120FFF7CEFF08B1012400E00024204665
:101F200038BD01460020A14A106820F0F80040EAC0
:101F3000C10010607047A049086070470246002049
:101F40009A4B586820F47C1042EA01031843974BDF
:101F50005860704798490866704701460020934AC8
:101F6000506820F003000843506070478F48406875
:101F700000F00C007047014600208C4A506820F0A9
:101F8000F00008435060704701460020874A5068BF
:101F900020F4E06008435060704701460020834A07
:101FA000506820F4605040EAC1005060704729B189
:101FB0007E4A527A02437D4B5A7204E07B4A527A3F
:101FC00082437A4B5A7270477B49D8310860704718
:101FD00001460020754A506820F440400843506094
:101FE00070470021714A20321170704A82F8201027
:101FF000012802D004280AD104E001216B4A2032D2
:10200000117005E00521694A2032117000E000BF1F
:1020100000BF70476949086070476449096A014315
:10202000624A11627047654944390860704730B5AB
:1020300000210022002400235C4D6D6805F00C0196
:1020400021B1042905D0082923D105E05C4D0560A4
:1020500022E05B4D05601FE0544D6D6805F4701281
:10206000524D6D6805F48034022505EB92421CB98F
:10207000544D554305600BE04C4D6D6805F400353B
:102080001DB1504D5543056002E04D4D554305606F
:1020900002E04B4D056000BF00BF444D6D6805F088
:1020A000F0010909484D6B5C0568DD4045603F4D16
:1020B0006D6805F4E061090A434D6B5C4568DD40DD
:1020C00085603A4D6D6805F46051C90A3E4D6B5C00
:1020D0004568DD40C560354D6D6805F44041890BAC
:1020E0003A4D6B5CC568B5FBF3F5056130BD29B1B0
:1020F0002E4A526902432D4B5A6104E02B4A526921
:1021000082432A4B5A61704729B1284A9269024397
:10211000264B9A6104E0254A92698243234B9A61D7
:10212000704729B1214AD2690243204BDA6104E0A9
:102130001E4AD26982431D4BDA61704729B11B4A9E
:10214000D2680243194BDA6004E0184AD26882432D
:10215000164BDA60704729B1144A12690243134BD7
:102160001A6104E0114A12698243104B1A617047E8
:1021700012494039086070470F49C86470470B49DD
:10218000C87170470948406A40F08070074948624A
:10219000704701460020054A92680A400AB10120B2
:1021A00000E000207047014988727047001002402B
:1021B0000000FFF8FFFFF6FE0000424280044242AA
:1021C00000127A0000093D003E0000204E00002071
:1021D00010B50446FE48844208D10121C014FFF71F
:1021E000ADFF0021E014FFF7A9FFC4E0B4F1804F78
:1021F00008D101210846FFF7AEFF00210120FFF7BB
:10220000AAFFB8E0F348844208D101210220FFF779
:10221000A2FF00210220FFF79EFFACE0EE488442BF
:1022200008D101210420FFF796FF00210420FFF7C9
:1022300092FFA0E0E948844208D101210820FFF77D
:102240008AFF00210820FFF786FF94E0E4488442DB
:1022500008D101211020FFF77EFF00211020FFF799
:102260007AFF88E0DF48844208D101212020FFF76F
:1022700072FF00212020FFF76EFF7CE0DA488442E5
:1022800008D101214014FFF759FF00216014FFF726
:1022900055FF70E0D548844209D10121C804FFF7F9
:1022A0004DFF00214FF40020FFF748FF63E0D048C6
:1022B000844209D101210805FFF740FF00214FF4B6
:1022C0008010FFF73BFF56E0CA48844209D1012144
:1022D0004805FFF733FF00214FF40010FFF72EFFF2
:1022E00049E0C548844208D101214020FFF733FF6F
:1022F00000214020FFF72FFF3DE0C048844208D175
:1023000001218020FFF727FF00218020FFF723FF16
:1023100031E0BB48844208D101218015FFF71BFF43
:102320000021A015FFF717FF25E0B648844209D128
:1023300001210804FFF702FF00214FF48030FFF76E
:10234000FDFE18E0B048844209D101214804FFF79E
:10235000F5FE00214FF40030FFF7F0FE0BE0AB4834
:10236000844208D101218804FFF7E8FE00214FF4E0
:102370008020FFF7E3FE10BD00220288944B9842B4
:102380000ED0994B98420BD0B0F1804F08D0914BB2
:10239000984205D0904B984202D0904B984204D17D
:1023A0004FF68F731A404B881A438D4B984207D0D3
:1023B0008C4B984204D04FF6FF431A40CB881A4307
:1023C00002808B8883850B880385814B98420BD0D4
:1023D000854B984208D08B4B984205D08A4B984247
:1023E00002D08A4B984201D10B7A03860123838263
:1023F000704770B5002400220023058C4FF6FE764E
:1024000035400584028C8388048B4FF68F752C40F1
:10241000B51E2C400D882C43751E2A400D892A4379
:102420004D882A436A4DA8420BD06F4DA84208D070
:10243000744DA84205D0744DA84202D0734DA842F5
:1024400013D14FF6F7752A404D892A434FF6FB7595
:102450002A408D882A434FF6FF652B404FF6FF55E3
:102460002B408D892B43CD892B4383800483CD88DA
:102470008586028470BD70B5002400220023058C7F
:102480004FF6EF7635400584028C8388048B48F63E
:10249000FF752C404FF6FF452C400D884FF6FF7618
:1024A00006EA05252C434FF6DF752A400D8906EA1A
:1024B00005152A434D8806EA05152A43444DA842CE
:1024C00002D0494DA8421DD14FF67F752A404D8953
:1024D0004FF6FF7606EA05152A434FF6BF752A40E8
:1024E0008D8806EA05152A434FF6FF352B404FF23B
:1024F000FF752B408D8906EA85052B43CD8906EAB9
:1025000085052B4383800483CD880587028470BDB5
:1025100070B5002400220023058C4FF6FF6635407D
:102520000584028C8388848B4FF68F752C404FF680
:10253000FC752C400D882C434FF6FF552A400D8921
:102540004FF6FF7606EA05252A434D8806EA05255B
:102550002A431F4DA84202D0234DA8421DD14FF25D
:10256000FF752A404D894FF6FF7606EA05252A4376
:102570004FF6FF352A408D8806EA05252A434EF698
:10258000FF752B404DF6FF752B408D8906EA05152A
:102590002B43CD8906EA05152B4383808483CD88A0
:1025A0008587028470BD70B5002200230024058C4D
:1025B0004EF6FF7635400584038C8488828B48F67E
:1025C000FF752A404FF6FF452A400D8820E00000A5
:1025D000002C01400004004000080040000C0040B6
:1025E000001000400014004000340140004C014045
:1025F000005001400054014000180040001C004001
:1026000000200040004001400044014000480140DB
:102610004FF6FF7606EA05252A434DF6FF752B4057
:102620000D8906EA05352B434D8806EA05352B430F
:10263000FA4DA84202D0FA4DA84208D14BF6FF75D8
:102640002C408D894FF6FF7606EA85152C43848051
:102650008283CD88A0F84050038470BD828B4FF2F6
:10266000FF331A408283828B4FF6FF7303EA012304
:102670001A4382837047F0B50C46154600220021AC
:102680000026078C4EF6FF7C07EA0C070784828B36
:10269000018C4FF6FF7707EA043640F6FF473A40D1
:1026A0004FF6FF7707EA05273A434FF6FF7707EA29
:1026B00003373A43D94FB8420ED0D94FB8420BD066
:1026C000B0F1804F08D0D74FB84205D0D64FB842AE
:1026D00002D0D64FB84206D14DF6FF77394046F4C6
:1026E0008057394305E047F6FF57394044F4805797
:1026F000394382830184F0BD828B4FF6F3731A4015
:102700008283828B0A4382837047F0B50C4615465C
:10271000002200210026078C4FF6FF6C07EA0C0709
:102720000784828B018C4FF6FF7707EA04264FF669
:102730000C773A404FF6FF7707EA03172F433A43E7
:10274000B64FB8420ED0B64FB8420BD0B0F1804F62
:1027500008D0B44FB84205D0B34FB84202D0B34FFF
:10276000B84206D14FF6FF57394046F480773943D7
:1027700005E04FF2FF57394044F4807739438283B4
:102780000184F0BD028B4FF2FF331A400283028BAB
:102790004FF6FF7303EA01231A4302837047F0B533
:1027A0000C461546002200210026078C4FF6EF7CD0
:1027B00007EA0C070784028B018C4FF6FF7707EAC4
:1027C000041640F6FF473A404FF6FF7707EA033713
:1027D0003A434FF6FF7707EA05273A438F4FB8424F
:1027E0000ED08F4FB8420BD0B0F1804F08D08D4F34
:1027F000B84205D08C4FB84202D08C4FB84206D1B7
:102800004FF6DF77394046F01007394305E04FF6C1
:102810005F77394044F01007394302830184F0BDEB
:10282000028B4FF6F3731A400283028B0A43028332
:102830007047F0B50C46154600220021068C4FF675
:10284000FE773E400684028B018C4FF60C763240B8
:102850007E1C06EA03162E433243704EB0420ED061
:102860006F4EB0420BD0B0F1804F08D06D4EB042E9
:1028700005D06D4EB04202D06C4EB04206D14FF63C
:10288000FD76314044F00106314305E04FF6F57620
:10289000314044F00106314302830184F0BD70B53C
:1028A00005460C465D4885420ED05D4885420BD0FA
:1028B000B5F1804F08D05B48854205D05A48854223
:1028C00002D05A48854200D100E000BF208850B9AC
:1028D0002389A28861882846FFF7ABFFE188284654
:1028E000FFF79EFF25E0208804280AD12389A288CB
:1028F00061882846FFF753FFE1882846FFF742FF2B
:1029000017E0208808280AD12389A28861882846F0
:10291000FFF7FBFEE1882846FFF7EEFE09E023897A
:10292000A28861882846FFF7A6FEE1882846FFF7BF
:1029300095FE70BD2DE9F04105460C4600260127A5
:10294000608808B9022600E00026A088012801D18D
:10295000022700E001272088A0B92389A288618886
:102960002846FFF766FFE1882846FFF759FF2389CD
:102970003A4631462846FFF712FFE1882846FFF71E
:1029800001FF13E02389A28861882846FFF707FF2B
:10299000E1882846FFF7F6FE23893A463146284665
:1029A000FFF747FFE1882846FFF73AFFBDE8F081CF
:1029B0000A884B881A438B881A43CB881A430B89A1
:1029C0001A434B891A438B891A43A0F84420704755
:1029D0004FF6FF71818000210180C180418001722A
:1029E00070470021018041808180C1800181418147
:1029F0008181C18170470021018041800121818056
:102A00000021C180018170470021018041808180C7
:102A1000C18001814181818170470000002C01400B
:102A2000003401400004004000080040000C004059
:102A300021B1028842F00102028004E002884FF6D0
:102A4000FE731A400280704731B1B0F8442042F45E
:102A50000042A0F8442005E0B0F84420C2F30E0282
:102A6000A0F8442070471AB183890B43838102E0A8
:102A700083898B43838170478182704741EA0203D7
:102A8000A0F8483070471AB183890B43838102E074
:102A900083898B438381704701894FF6F872114017
:102AA000018170470A46002101894FF68F73194052
:102AB00011430181704730B504460D462946204632
:102AC000FFF7F0FF208940F00700208130BD2DE99D
:102AD000F04104460D4616461F46602D06D13B4682
:102AE000012231462046FFF75AFE05E03B4601220F
:102AF00031462046FFF79DFE29462046FFF7D2FFCC
:102B0000208940F007002081BDE8F08130B50C46F7
:102B100000210189C9B24FF6FF7505EA0325154367
:102B200025432943018130BD2DE9F04105460E467C
:102B300017469846002443463A4631462846FFF752
:102B4000E5FF2C894FF6F870044044F007044FF677
:102B50008F70044044F070042C81BDE8F081F0B522
:102B600004460D4616461F463B4632462946204639
:102B7000FFF7CCFF208940F480402081F0BD018523
:102B8000828270470A46002101884FF68F731940F0
:102B9000114301807047F0B50C4615461E460021D2
:102BA000002200230189028B038C4FF6F87739400D
:102BB00021434FF6FC473A4040F201173A434FF6A3
:102BC000DD773B404FF6FF7707EA06172F433B437D
:102BD000018102830384F0BD0A460021018B4FF678
:102BE0008F7319401143018370470A460021018BFE
:102BF00048F6FF7319404FF6FF7303EA02231943A7
:102C0000018370470A460021818B4FF68F7319406C
:102C10001143818370470A460021818B48F6FF7378
:102C200019404FF6FF7303EA02231943818370476B
:102C300021B1028842F08002028004E002884FF64F
:102C40007F731A400280704721B1828842F00402EB
:102C5000828004E082884FF6FB731A4082807047BE
:102C600021B1828842F00802828004E082884FF617
:102C7000F7731A408280704721B1828842F00102C6
:102C8000828004E082884FF6FE731A40828070478B
:102C90000A460021018B4FF6F77319401143018357
:102CA00070470A460021018B4FF2FF7319404FF61F
:102CB000FF7303EA02231943018370470A46002188
:102CC000818B4FF6F77319401143818370470A4691
:102CD0000021818B4FF2FF7319404FF6FF7303EA17
:102CE00002231943818370470A460021018B4FF666
:102CF000FB7319401143018370470A460021018B81
:102D00004FF6FF3319404FF6FF7303EA02231943CE
:102D1000018370470A460021818B4FF6FB731940EF
:102D20001143818370470A460021818B4FF6FF33A0
:102D300019404FF6FF7303EA02231943818370475A
:102D40000A460021018B4FF67F731940114301831E
:102D500070470A460021018BC1F30E014FF6FF7345
:102D600003EA02231943018370470A460021818B3D
:102D70004FF67F7319401143818370470A46002143
:102D8000818BC1F30E014FF6FF7303EA022319434F
:102D9000818370470A460021018C4FF6FD7319406C
:102DA0001143018470470A460021018C4FF6F773E6
:102DB00019401143018470470A460021018C4FF6E7
:102DC000DF7319404FF6FF7303EA021319430184BE
:102DD00070470A460021018C4FF67F7319404FF669
:102DE000FF7303EA02131943018470470A46002166
:102DF000018C4FF6FF5319404FF6FF7303EA02238D
:102E00001943018470470A460021018C4FF2FF7379
:102E100019404FF6FF7303EA0223194301847047F8
:102E20000A460021018C4DF6FF7319404FF6FF73DF
:102E300003EA023319430184704730B500230124AB
:102E40008C40A3B2048C9C430484048C02FA01F5E8
:102E5000ADB22C43048430BD30B5002304248C4033
:102E6000A3B2048C9C430484048C02FA01F5ADB235
:102E70002C43048430BD70B503460020002418465E
:102E8000183001258D40ACB21D8CA5431D8409B1BD
:102E9000082909D100EB6100056825F0700505607F
:102EA0000568154305600EE00D1FC5F34E05284467
:102EB000056825F4E045056005684FF6FF7606EAEB
:102EC00002263543056070BD21B1028842F002023E
:102ED000028004E002884FF6FD731A4002807047BA
:102EE00021B1028842F00402028004E002884FF619
:102EF000FB731A400280704721B1828842F0800241
:102F0000828004E082884FF67F731A408280704787
:102F100002884FF6F7731A40028002880A43028043
:102F2000704782884FF68F731A40828082880A43E6
:102F30008280704702894FF6F8731A400281028935
:102F40000A430281704702894FF67F731A4002815B
:102F500002890A43028170478184704781857047E6
:102F6000818670470187704781877047A0F84010BD
:102F7000704702884FF6FF431A40028002880A43D6
:102F8000028070470146888E70470146088F70475F
:102F90000146888F70470146B1F8400070470146EE
:102FA000888C70470146088D704702460020138ABE
:102FB0000B400BB1012000E000207047CA430282A1
:102FC000704730B50246002000230024158A05EA28
:102FD0000103958905EA010413B10CB1012000E059
:102FE000002030BDCA4302827047000010B504467D
:102FF000FB48844209D101218803FFF79FF8002193
:103000004FF48040FFF79AF832E0F648844209D145
:1030100001214804FFF79FF800214FF40030FFF72B
:103020009AF825E0F048844209D101218804FFF78D
:1030300092F800214FF48020FFF78DF818E0EB485C
:10304000844209D10121C804FFF785F800214FF41B
:103050000020FFF780F80BE0E548844208D1012109
:103060000805FFF778F800214FF48010FFF773F898
:1030700010BD2DE9F04786B005460E460024A24655
:1030800000BFA1460027B08900B100BF2F462C8A9F
:103090004CF6FF700440F08804432C82AC894EF655
:1030A000F3100440B0883189084371890843044310
:1030B000AC81AC8A4FF6FF400440B0890443AC8237
:1030C00001A8FEF7B4FFC648874202D1DDF810A080
:1030D00001E0DDF80CA0A88900F4004040B10AEB43
:1030E000CA0000EB0A1031684900B0FBF1F807E0B4
:1030F0000AEBCA0000EB0A1031688900B0FBF1F856
:103100006420B8FBF0F004012009642101FB108960
:10311000A88900F4004040B1322000EBC900B0FBA8
:10312000F1F000F00700044308E0322000EB091042
:103130006421B0FBF1F000F00F0004432C8106B0D5
:10314000BDE8F0874FF41651016000218180C180F5
:1031500001810C21418100218181704710B5024617
:103160000020108A4FF2FF0318400B884C8823433D
:103170008C882343CC8823431843108210BD002140
:10318000018041808180C180704721B1828942F4F1
:103190000052828104E082894DF6FF731A408281D9
:1031A0007047F0B50346002400260025002040F6B5
:1031B0006A17B94200D100BF1846C1F3421401F0AA
:1031C0001F06012707FA06F5012C01D10C3004E097
:1031D000022C01D1103000E014301AB107682F43DF
:1031E000076002E00768AF430760F0BD1AB1838A49
:1031F0000B43838202E0838A8B4383827047028A77
:103200004FF6F0731A400282028A0A430282704724
:1032100082894FF2FF731A40828182890A43828138
:10322000704721B1828942F00202828104E08289E2
:103230004FF6FD731A4082817047028A4FF6DF73A2
:103240001A400282028A0A430282704721B1028A2E
:1032500042F48042028204E0028A4BF6FF731A4075
:1032600002827047C1F30802828070470146888855
:10327000C0F308007047818941F0010181817047E6
:10328000028BD2B20283028B42EA01220283704790
:10329000028B02F47F420283028B0A43028370474F
:1032A00021B1828A42F02002828204E0828A4FF6B3
:1032B000DF731A408282704721B1828A42F0100285
:1032C000828204E0828A4FF6EF731A40828270474E
:1032D00021B1828A42F00802828204E0828A4FF69B
:1032E000F7731A408282704721B1828942F400420A
:1032F000828103E08289C2F30E028281704721B18C
:10330000828A42F40062828204E0828A4FF2FF7372
:103310001A4082827047828A4FF6FB731A4082827B
:10332000828A0A438282704721B1828A42F0020275
:10333000828204E0828A4FF6FD731A4082827047CF
:1033400002460020B1F5007F00D100BF13880B407A
:103350000BB1012000E00020704701F40072B2F5CB
:10336000007F00D100BFCA430280704770B502469B
:10337000002400230025002040F66A16B14200D147
:1033800000BFC1F3421501F01F03012606FA03F343
:10339000012D02D19689334006E0022D02D1168A12
:1033A000334001E0968A33400C12012606FA04F4F9
:1033B0001688344013B10CB1012000E0002070BD2C
:1033C00010B50022002340F66A14A14200D100BFCC
:1033D0000A1201249440A3B2DC43048010BD000013
:1033E000003801400044004000480040004C0040CC
:1033F00000500040002044490860091D0860091D74
:103400000860091D086041483F4914310860704751
:1034100000213D498279002A3AD00A4612680368A1
:103420009A430B461A600A1D126803689A430B1DE3
:103430001A60027911440A6803681A430A60324A22
:103440000832126803689A432F4B08331A601A1D1A
:10345000126803689A432C4B0C331A604279102A85
:103460000ED11A1F126803681A43274B08331A60DB
:103470001A1D126803681A43234B0C331A600DE0BF
:103480002149427911440A6803681A430A6005E039
:10349000027911440A6803689A430A607047002160
:1034A000016001710C214171002181717047164941
:1034B000103109680143144A103211607047014607
:1034C0000020114A143212680A400AB1012000E0BB
:1034D000002070470C4914310860704701460020F5
:1034E0000022094B1B6803EA0102074B14331B68D7
:1034F0000B4013B10AB1012000E0002070470249DF
:10350000143108607047000000040140FFFF0F0005
:1035100010B50120FEF72CFE0020FEF729FE10BD9D
:103520002A49086070472949091F086070472749E0
:1035300084310860704701460020254A10884FF604
:103540007F4210400843224A108070470146002005
:103550001F4A10884FF68072104008431C4A1080A2
:10356000704708B500220092194A2C3A0092009A3E
:1035700002440092009A116008BD08B5014600207F
:10358000009013482C380090009808440090009850
:10359000008808BD0D489C300068C0B270470C48D8
:1035A0000830008840F00100094908310880704760
:1035B0000648A0300068C0B270470548083000884F
:1035C00040F00200024908310880704704860D422D
:1035D0002C6C004010B501210807FEF7BCFD00214E
:1035E0004FF08050FEF7B7FD10BD2A4908627047C2
:1035F00028490861704701460020274A106820F0DA
:10360000E0000843106070472249A031086070470D
:1036100010B502460020204B186820F0030010432C
:1036200018601E4B1B6843F004031C4C23600129E7
:1036300001D130BF00E020BF184B1B6823F004030A
:10364000164C236010BD1448006840F00400124975
:1036500008600846006840F0020008600F480068F3
:1036600040F004000D49086000BF00BF30BF704744
:1036700001460020084A52680A400AB1012000E0D1
:10368000002070470449096841EA8001024A11603C
:103690007047000000000E420070004010ED00E096
:1036A00029B1504A128802434E4B1A8004E04D4A19
:1036B000128882434B4B1A8070474A48001D00888D
:1036C00040F010004749091D088070474548001D1B
:1036D00000884FF6EF7108404249091D0880704785
:1036E000002140481C300188001F008841EA00404A
:1036F000704700B50246FFF7E0FF100C394918315A
:103700000880091D0A80FFF7E1FF00BD00B50246F1
:10371000FFF7D3FFC2F30340324908310880091D87
:103720000A80FFF7D3FF00BD00B50246FFF7C5FFD3
:10373000100C2C4920310880091D0A80FFF7C6FFB4
:1037400000BD00202749103109880907080B2549C9
:10375000143109880843704700BF2248001D0088C3
:1037600000F020000028F8D070471E48001D008897
:103770004FF6F77108401B49091D088000BF194822
:10378000001D008800F008000028F8D070470146AE
:103790000020144A121D12880A400AB1012000E0DC
:1037A000002070470F49091D098881430D4A121DE9
:1037B00011807047014600200A4A121D12880A40F3
:1037C000D0B2084A12880A4012B108B1012000E0C4
:1037D000002070470349091D09888143014A121DD1
:1037E000118070470028004070B503460C4603E086
:1037F00014F8015B03F8015B151EA2F10102F7D179
:1038000070BD30B5034601E003F8011B141EA2F1A0
:103810000102F9D130BD10B504467A4951F824109F
:103820004A00794951F824000021FFF7EAFF77495F
:1038300051F824207449083951F824000021FFF779
:10384000E0FF012170480830015510BD10B5014658
:103850000023002207E06C4850F8210030F81200E5
:1038600000B15B1C521C674850F821009042F2D80E
:1038700064205843634C54F82140B0FBF4F0C0B2CC
:1038800010BD2DE9F04704460F460025A9465E48C5
:103890000830005D20B95C48103801682046884730
:1038A0001FB94FF0FF30BDE8F087594850F82400A9
:1038B000B7FBF0F6564850F82400B7FBF0F100FBD8
:1038C000117000B1761C4F4850F82400451E20E0CE
:1038D0004D4850F8240030F8150010B909F10109DD
:1038E00001E04FF00009B14512D14FF0000808E0A7
:1038F000454850F8240005EB080220F8126008F152
:103900000108B045F4D3424850F824006843CAE7A0
:103910006D1E002DDCDA4FF0FF30C4E72DE9F041D9
:1039200004460E4638480830005D38B9364810382D
:103930000168204688470120BDE8F081334850F8EF
:103940002400B04217D9324850F82400B6FBF0F1F9
:103950002D4850F8240030F81120002507E00023FE
:10396000294850F824004F1920F817306D1C954253
:10397000F5DB0020E0E70220DEE770B505460C46E7
:1039800004B970BD2048083850F82500261A314681
:103990002846FFF7C3FF00BFF3E770B504460E46A5
:1039A00031462046FFF76DFF0546681C08B9002028
:1039B00070BD1548083850F824002844F8E72DE970
:1039C000F04104460F46164631462046FFF759FFA0
:1039D0000546681C10B90020BDE8F0810A49083985
:1039E00051F82410481932463946FFF7FDFE394692
:1039F0002046FFF7C2FF0448083850F82400284446
:103A0000EAE70000800B010864000020900B010829
:103A1000880B010810B58CB004461E230BAA03A91D
:103A2000204600F0ABFE0090009810B101200CB0D1
:103A300010BD9DF82C00044400200B900EE040487F
:103A40009DF82C2050F8221003A800F0FFFD00B9CB
:103A500008E09DF82C00401CC0B20B909DF82C0093
:103A60000728ECD300BF9DF82C00072863D2DFE8BD
:103A700000F004053C5E6564630000BF31A00CF0FB
:103A80001DFE31A00CF01AFE3FA00CF017FE4EA058
:103A90000CF014FE5CA00CF011FE6BA00CF00EFEFE
:103AA00079A00CF00BFE86A00CF008FE8BA00CF0A9
:103AB00005FE90A00CF002FE94A00CF0FFFD99A072
:103AC0000CF0FCFD9EA00CF0F9FDA4A00CF0F6FD9E
:103AD000B0A00CF0F3FDBDA00CF0F0FDC8A00CF000
:103AE000EDFDD4A00CF0EAFD9AE216A00CF0E6FD84
:103AF000E0A00CF0E3FD00200B900EE0ED48006824
:103B00009DF82C2000EBC2004168EBA00CF0D6FD24
:103B10009DF82C00401CC0B20B90E648007D9DF83B
:103B20002C108842EADC07A00CF0C8FD78E205A062
:103B30000CF0C4FDC4E171E245E219E2ECE10000E1
:103B4000700000200D0A00002D2D2D2D2D2D2D2D66
:103B50002D2D2D2D2D2D2D2D2D2D2D2D2D2D2D2D95
:103B600055534D4152542056332E312D2D2D2D2D90
:103B70002D2D2D2D2D2D2D2D2D2D2D2D2D2D2D2D75
:103B80002D2D2D200D0A00002020202055534D41C1
:103B90005254CAC7D3C9414C49454E54454BBFAA9C
:103BA000B7A2B5C4D2BBB8F6C1E9C7C9B5C4B4AEF3
:103BB000BFDAB5F7CAD4BBA5BDBBD7E9BCFE2CCDD7
:103BC000A8B9FD200D0A0000CBFC2CC4E3BFC9D26C
:103BD000D4CDA8B9FDB4AEBFDAD6FACAD6B5F7D3FC
:103BE000C3B3CCD0F2C0EFC3E6B5C4C8CEBACEBA28
:103BF000AFCAFD2CB2A2D6B4D0D02ED2F2B4CB2C08
:103C0000C4E3BFC90D0A0000D2D4CBE6D2E2B8FCAF
:103C1000B8C4BAAFCAFDB5C4CAE4C8EBB2CECAFDD7
:103C200028D6A7B3D6CAFDD7D62831302F3136BD16
:103C3000F8D6C629A1A2D7D6B7FBB4AEA1A2BAAF17
:103C4000CAFDC8EB0D0A0000BFDAB5D8D6B7B5C8B3
:103C5000D7F7CEAAB2CECAFD292CB5A5B8F6BAAF11
:103C6000CAFDD7EEB6E0D6A7B3D63130B8F6CAE46F
:103C7000C8EBB2CECAFD2CB2A2D6A7B3D6BAAFCA91
:103C8000FDB7B5200D0A0000BBD8D6B5CFD4CABE4B
:103C90002ED0C2D4F6B2CECAFDCFD4CABEBDF8D69D
:103CA000C6C9E8D6C3B9A6C4DC2CD0C2D4F6BDF8C8
:103CB000D6C6D7AABBBBB9A6C4DC2E0D0A0000002D
:103CC000BCBCCAF5D6A7B3D63A7777772E6F7065A6
:103CD0006E6564762E636F6D0D0A000055534D417D
:103CE0005254D3D037B8F6CFB5CDB3C3FCC1EE3AFA
:103CF0000D0A00003F3A202020202020BBF1C8A15F
:103D0000B0EFD6FAD0C5CFA20D0A000068656C707E
:103D10003A202020BBF1C8A1B0EFD6FAD0C5CFA27F
:103D20000D0A00006C6973743A202020BFC9D3C308
:103D3000B5C4BAAFCAFDC1D0B1ED0D0A0A0000008A
:103D400069643A2020202020BFC9D3C3BAAFCAFD7E
:103D5000B5C44944C1D0B1ED0D0A0A006865783A8E
:103D600020202020B2CECAFD3136BDF8D6C6CFD431
:103D7000CABE2CBAF3B8FABFD5B8F12BCAFDD7D654
:103D8000BCB4D6B4D0D0BDF8D6C6D7AABBBB0D0A3A
:103D90000A0000006465633A20202020B2CECAFDEC
:103DA0003130BDF8D6C6CFD4CABE2CBAF3B8FABFEC
:103DB000D5B8F12BCAFDD7D6BCB4D6B4D0D0BDF897
:103DC000D6C6D7AABBBB0D0A0A00000072756E7476
:103DD000696D653A312CBFAAC6F4BAAFCAFDD4CB1F
:103DE000D0D0BCC6CAB13B302CB9D8B1D5BAAFCA55
:103DF000FDD4CBD0D0BCC6CAB13B0D0A0A0000002E
:103E0000C7EBB0B4D5D5B3CCD0F2B1E0D0B4B8F1F3
:103E1000CABDCAE4C8EBBAAFCAFDC3FBBCB0B2CEE0
:103E2000CAFDB2A2D2D4BBD8B3B5BCFCBDE1CAF8BE
:103E30002E0D0A002D2D2D2D2D2D2D2D2D2D2D2D21
:103E40002D2D2D2D2D2D2D2D2D2D2D2D2D2D414C6F
:103E500049454E54454B2D2D2D2D2D2D2D2D2D2DE0
:103E60002D2D2D2D2D2D2D2D2D2D2D2D2D2D2D208F
:103E70000D0A00002D2D2D2D2D2D2D2D2D2D2D2D0F
:103E80002D2D2D2D2D2D2D2D2D2D2D2D2DBAAFCAB6
:103E9000FDC7E5B5A52D2D2D2D2D2D2D2D2D2D2D30
:103EA0002D2D2D2D2D2D2D2D2D2D2D2D2D2D2D2D42
:103EB000200D0A00CC00002025730D0A0000000030
:103EC000EFA00CF0FBFB00200B901AE0FC49096806
:103ED0009DF82C2001EBC20101AB02AA486803A99E
:103EE00000F072FCF64800689DF82C1050F8312064
:103EF00003A9F4A00CF0E2FB9DF82C00401CC0B21A
:103F00000B90EF48007D9DF82C108842DEDCAFF26C
:103F1000CC300CF0D3FB83E0AFF2D8300CF0CEFB0A
:103F20000BAA03A9204600F02BFD9DF82C00C8B970
:103F3000694603A800F0BDFB0B909DF82C0020B94A
:103F4000E5A000990CF0BAFB0EE09DF82C000428C7
:103F500001D002206BE5E3A00CF0B0FB0120D849B2
:103F6000C87501E0022062E5DDA00CF0A7FB57E078
:103F7000DBA00CF0A3FB0BAA03A9204600F000FD78
:103F80009DF82C00C8B9694603A800F092FB0B907D
:103F90009DF82C0020B9D8A000990CF08FFB0EE002
:103FA0009DF82C00042801D0022040E5D5A00CF09B
:103FB00085FB0020C249C87501E0022037E5C8A092
:103FC0000CF07CFB2CE0C6A00CF078FB0BAA03A93C
:103FD000204600F0D5FC9DF82C00C8B9694603A81E
:103FE00000F067FB0B909DF82C0078B9B44900985D
:103FF00081F8EC00084690F8EC0018B1C6A00CF06F
:104000005DFB07E0CBA00CF059FB03E002200EE5BE
:1040100002200CE5B2A00CF051FB01E0012006E506
:1040200000BF002003E510B50121C948FEF7C6FF17
:104030004FF6FF71C648FEF791FF0021C448FEF716
:104040008BFF00209E49C1F8F00010BD10B5012182
:10405000BF48FEF7AAFF012808D19948D0F8F00020
:104060004FF6FF7108449649C1F8F000B848FEF7D2
:1040700096FF9349D1F8F01008449149C1F8F00037
:104080000846D0F8F00010BD10B50121B048FEF789
:1040900098FF01280AD18A49086980470021AC4865
:1040A000FEF75AFF6421AA48FEF758FF0121A848ED
:1040B000FEF798FF10BD7FB505460C460121042090
:1040C000FEF72FF8ADF80850ADF804400020ADF829
:1040D0000A00ADF8060001A99D48FEF74DF901223E
:1040E00041219B48FEF7BFFC1E208DF800000320F5
:1040F0008DF801008DF8020001208DF8030068465C
:10410000FDF777F901219248FEF792FC7FBD10B5CB
:10411000044604EBC40000EB04100122C2EB800053
:1041200081B24FF47A70FFF7C6FF01206449C87569
:1041300010BD30B595B0054613AB12AA09A92846A3
:1041400000F042FB044614B1204615B030BD0020FB
:10415000149026E05A4909689DF8502001EBC201ED
:1041600013AB11AA486801A900F02EFB04460CB15C
:104170002046EAE709A901A800F068FA60B99DF8AD
:1041800044009DF84810884201DD0220DDE79DF8DB
:1041900050004B4988750AE09DF85000401CC0B2A1
:1041A00014904748007D9DF850108842D2DC00BF33
:1041B0004348007D9DF85010884201D10420C4E797
:1041C00014A9284600F04DFC04460CB12046BCE77B
:1041D0009DF850003A4948750020B6E72DE9F041B6
:1041E0009AB03748847D007DA04202DC1AB0BDE859
:1041F000F0813349096801EBC40106AB07AA48689E
:1042000008A900F0E1FA08A952A00CF057FA00261C
:10421000BAE02B48008B0121B1400840D8B12221DF
:104220004EA00CF04BFA304600F00EFC244924312D
:10423000471839464AA00CF041FA222147A00CF059
:104240003DFA304600F000FC1D492431084410A915
:1042500041F826008EE0304600F0F6FB1849243184
:10426000085810A941F826001548C07D30B910A89B
:1042700050F826103BA00CF021FA7BE074E000001F
:104280002D2D2D2D2D2D2D2D2D2D2D2D2D2D2D2D5E
:104290002D2D2D2D2D2D2D2D2DBAAFCAFD204944AC
:1042A000202D2D2D2D2D2D2D2D2D2D2D2D2D2D2D4B
:1042B0002D2D2D2D2D2D2D2D2D2D2D2D200D0A00AB
:1042C000CC00002025732069642069733A0D0A3000
:1042D00058253038580D0A004845583A3058255866
:1042E0000D0A00003136BDF8D6C6B2CECAFDCFD415
:1042F000CABE210D0A0000004445433A256C750DE5
:104300000A0000003130BDF8D6C6B2CECAFDCFD407
:10431000CABE210D0A00000052756E2054696D65F9
:104320002043616C63756C6174696F6E204F4E0D34
:104330000A00000052756E2054696D652043616C5F
:1043400063756C6174696F6E204F46460D0A0000FC
:10435000000800400D0A25732800000025630000B6
:1043600025730000256C750010A850F8261095A044
:104370000CF0A4F99DF81C00401EB04202D093A09E
:104380000CF09CF9701CC6B29DF81C008642FFF62A
:1043900040AF8FA00CF092F9FFF745FE8D48407DAD
:1043A0000B280DD2DFE800F0060D151E27323F4E18
:1043B0005F7287008749096851F8340080470546D5
:1043C00090E0844A126852F83410109888470546E5
:1043D00088E0804B1B6853F83420DDE910019047DA
:1043E00005467FE07B4F3F6857F8343010A807C878
:1043F0009847054676E0DFF8DCC1DCF800C05CF8E1
:10440000347010A80FC8B84705466BE01498DFF861
:10441000C4C10090DCF800C05CF8347010A80FC86C
:10442000B84705465EE0DDE91401DFF8A8C1CDE933
:104430000001DCF800C05CF8347010A80FC8B84761
:1044400005464FE0DDE914121698DFF888C1CDE982
:1044500000120290DCF800C05CF8347010A80FC89D
:10446000B84705463EE0DDE91423DDE91610DFF824
:1044700064C1CDE90023CDE90210DCF800C05CF88E
:10448000347010A80FC8B84705462BE0DDE91523A6
:10449000DDE91710CDE90123CDE903101498DFF809
:1044A00034C10090DCF800C05CF8347010A80FC86C
:1044B000B847054616E0DDE91623DDE91810CDE919
:1044C0000223CDE90410DDE91401DFF808C1CDE9CC
:1044D0000001DCF800C05CF8347010A80FC8B847C1
:1044E000054600BF00BFFFF7B1FD9DF81800012889
:1044F0000CD13848C07D20B9294637A00CF0DEF831
:1045000007E0294636A00CF0D9F802E033A00CF001
:10451000D5F8304890F8EC0088B12E48D0F8F0007B
:104520000A21B0FBF1F201FB12072A48D0F8F00093
:10453000B0FBF1F83A4641462CA00CF0BFF800BFA2
:1045400054E670B53148008800F40040002833D0AC
:104550002E48057800202E4948551E4881682C4871
:10456000884704461CB91B49C868804721E0284891
:10457000FFF750FA0546012D00D02C46CCB1012C96
:1045800006D0022C08D0032C0AD0042C10D10BE04A
:1045900020A00CF093F80BE021A00CF08FF807E0BE
:1045A00022A00CF08BF803E023A00CF087F800BFEA
:1045B00000BF00201549088070BD0146086870479B
:1045C0000160704730582558000000002C000000A2
:1045D00029000000CC0000203D256C753B0D0A0031
:1045E0003D305825583B0D0A0000000046756E63AB
:1045F00074696F6E2052756E2054696D653A25643A
:104600002E2531646D730D0A000000003400002077
:10461000AC020020BAAFCAFDB4EDCEF3210D0A0002
:10462000B2CECAFDB4EDCEF3210D0A00B2CECAFD62
:10463000CCABB6E0210D0A00CEB4D5D2B5BDC6A52F
:10464000C5E4B5C4BAAFCAFD210D0A0002460AE0AE
:1046500010780B78984201D001207047107800B98B
:1046600002E0521C491CF3E700BF0020F5E706E01A
:1046700002780A70027802B902E0401C491CF7E790
:1046800000BF70470146002005E00A7802B903E048
:10469000421CD0B2491CF8E700BF704710B5024673
:1046A000012000E050430B1EA1F10104E1B2F9D159
:1046B00010BD2DE9F04307460E4600254FF00A08CD
:1046C0003C46002030601FE02078392802DC20784A
:1046D00030280ADA2078462802DC2078412804DADB
:1046E0002078582809D1012D07D12078412801DBF5
:1046F0004FF01008681CC5B205E0207800B904E04E
:104700000120BDE8F083641CDEE700BF3C46B8F141
:10471000100F0FD1032D01DA0220F2E720783028A4
:1047200006D16078582803D1A41CA81EC5B204E0A5
:104730000320E6E70DB90420E3E71BE00DB1681E96
:10474000C5B22078392806DC2078302803DB2078B1
:10475000A0F1300902E02078A0F13709294640464F
:10476000FFF79CFF316809FB00103060641C207863
:1047700000B900E0E2E700BF0020C2E710B5044640
:10478000002010700BE020780870641C491C107821
:10479000401C10701078984201DB012010BD207879
:1047A000202802D020780028EDD10020087000BF1A
:1047B000F4E70146491C00E0491C0878202801D193
:1047C0000029F9D1087870472DE9FF4F85B0804660
:1047D00089460027002004900390012002904FF0AA
:1047E000000B002544461DE02078202816D005F057
:1047F0007F00052812DA0DB945F0800505F07F002D
:10480000042803D120782A2800D00EE0207805F073
:104810007F010DF80100681CC5B202E0852D00D1B2
:1048200003E0641C20780028DED100BF8DB1002099
:1048300005F07F010DF80100CBA16846FFF706FFE8
:1048400018B900210898017002E001210898017050
:1048500000254FF0000A444614E0641C0AF10100F0
:1048600000F0FF0A2078202802D020782A2809D1D9
:104870002046FFF79EFF0646282E03D02A2E01D0A1
:10488000CDF810A02078282802D020780028E4D184
:104890004446049810B10498401C04444FF0000AA8
:1048A000002654E0207810B94FF0010A50E020783B
:1048B000282803D116B9781CC7B213E0207829281C
:1048C00008D13EB917B1781EC7B201E04FF0010A16
:1048D00047B93DE02078222804D10EB9012000E03C
:1048E0000020064647B9207820282FD0207889F864
:1048F000000009F1010929E020782C2804D10120C9
:104900000290681CC5B214E02078202811D02078CD
:1049100028280ED04DB9BBF1050F06DA20780DF826
:104920000B000BF1010000F0FF0B0298401CC0B21D
:104930000290012F0AD10298022807D10298401C48
:10494000C0B202900398401CC0B20390641CA9E757
:1049500000BF0398012809D100200DF80B0082A1A7
:104960006846FFF773FE08B9002003900799039883
:104970000870002089F80000504609B0BDE8F08FAB
:10498000F0B503461546002000220026002455E01D
:104990001F782C2F01D104B901221F78292F01D0B3
:1049A0001F780FB904B94AE0002E34D11F78302F98
:1049B00002DB1F78392F11DD1F78612F02DB1F7892
:1049C000662F0BDD1F78412F02DB1F78462F05DD98
:1049D0001F78582F02D01F78782F0CD102B12EE00B
:1049E0001F78612F03DB1F78203F0F7001E01F78D5
:1049F0000F70491C1FE01F78222F04D102B11EE066
:104A00000126012417E01F78202F14D01F782C2FA7
:104A100011D0FF2613E01F78222F00D1002402B10D
:104A20000DE044B11F785C2F02D15B1C471CF8B22B
:104A30001F780F70491C471CF8B25B1CA8E700BF29
:104A400000270F702E70F0BD02460020002105E007
:104A5000474B5B5C0344D8B24B1CD9B29142F7DBA5
:104A600070472DE9F043B5B005460F4600240026F7
:104A700004E000213E488155701CC6B20A2EF8DBC6
:104A800006E06D1C287818B9012035B0BDE8F08328
:104A900028782828F5D16D1C61E034AA694628469B
:104AA000FFF76EFF064635449DF8D00020B101287F
:104AB00027D0FF284CD149E09DF8000000B333A96E
:104AC0006846FFF7F6FD06460EB10220DDE72046F8
:104AD000FFF7BAFF26490A31339A0A50A1F12400A0
:104AE000008B0121A140884321491A390883042100
:104AF0001F480155601CC4B20A2C01DD0320C4E725
:104B000026E06846FFF7BEFD401C00F0FF08204687
:104B1000FFF79AFF16490A3100EB0109494668463A
:104B2000FFF7A5FD12481A38018B0120A040014370
:104B300088B20F491A3908830D4800F80480601CB8
:104B4000C4B20A2C01DD03209FE701E002209CE7AC
:104B500000BF2878292801D0287800B900E09CE718
:104B600000BF3C70002090E7766F69640000000091
:104B7000E600002001460806000C40EA11207047BC
:104B80000146080601F47F4240EA022001F47F0258
:104B900040EA122040EA116070472DE9F0410546D5
:104BA0000E46904630460BF037FC074617B92846AC
:104BB000BDE8F0812C460CE020783178884207D19E
:104BC0003A46314620460BF03BFC08B92046EFE759
:104BD000641C207820B1E01905EB08018842EBD96C
:104BE0000020E5E770B502460B4600BF12F8011B36
:104BF00013F8014BA1420FD041F02005612D08DBD5
:104C00007A2D06DC44F02006B54201D0012070BDAB
:104C100001E00120FBE700BF0029E7D10020F6E713
:104C2000F0B503460C4600BF13F8011B14F8015BF6
:104C3000A9420FD041F02006612E08DB7A2E06DC57
:104C400045F02007BE4201D00120F0BD01E0012067
:104C5000FBE700BF521E0AB10029E5D10020F4E7AE
:104C60002DE9F04706460F4690463446F019451E9A
:104C7000B8F1000F01DB404601E0C8F100008146B9
:104C8000022F05D2012F01D100203070BDE8F0873E
:104C9000B8F1000F02DA2D2004F8010B0020287073
:104CA0000CE00A2199FBF1F201FB12913031C8B2FC
:104CB0006D1E28700A2199FBF1F900BFB9F1000FB0
:104CC00001D0A542EDD8B9F1000F02D0002030701C
:104CD000DCE7287830B9302004F8010B002004F814
:104CE000010BD3E7F019421B294620460BF062FB6B
:104CF00000BFCBE7F8B505460A462B4600200090DA
:104D0000002103F0010636B1002A04DD13F8010B7F
:104D10008DF80100521E1C4603E034F8027B394432
:104D2000921E012AF9DC002A02DD20788DF80000AD
:104D3000BDF80000014488B200EB114188B200EBDD
:104D4000114126B1C8B2C1F3072747EA002188B252
:104D5000F8BD2DE9F04706460F4690461C464FF039
:104D6000000935461DE000BF00BF69896868FFF78C
:104D7000C1FF0444A0B200EB1444688900EBD07179
:104D80004910A0EB410159B1B9F1000F01D1012047
:104D900000E000208146E0B2C4F3072141EA00248C
:104DA0002D68002DDFD1B9F1000F04D0E0B2C4F3BB
:104DB000072141EA00243846FFF7DCFE0444404660
:104DC000FFF7D8FE0444A0B200EB1444A0B200EBFD
:104DD000144400BF00BFE04380B2BDE8F0872DE976
:104DE000F0470746884691461E46DDF820A0356804
:104DF000ACB24FF6FF7000EA15400444DAF80050F8
:104E0000A8B204444FF6FF7000EA15400444A0B273
:104E100000EB1444A0B200EB144423464A4641463A
:104E20003846FFF796FFBDE8F0872DE9F8430446C2
:104E30000D4616461F46DDF820803B463246294681
:104E40002046CDF80080FFF7CAFFBDE8F8832DE9C2
:104E5000F05F8046894692461D460A9C4FF0000B43
:104E600046462EE000BF00BF7789AF4200DD2F46E7
:104E700039467068FFF73EFF0444E81B85B200BF67
:104E800047F6FF70854204DB00BF55A00BF016FC0F
:104E900000BF00BFA0B200EB1444708900EBD071DA
:104EA0004910A0EB410159B1BBF1000F01D1012024
:104EB00000E000208346E0B2C4F3072141EA002469
:104EC00036680EB1002DCDDCBBF1000F04D0E0B28E
:104ED000C4F3072141EA00244846FFF74BFE04448F
:104EE0005046FFF747FE0444A0B200EB1444A0B2C2
:104EF00000EB144400BF00BFE04380B2BDE8F09F68
:104F00002DE9F84F06460F4690469946DDE90AAB73
:104F1000DAF80050ACB24FF6FF7000EA15400444D6
:104F2000DBF80050A8B204444FF6FF7000EA1540C9
:104F30000444A0B200EB1444A0B200EB14444B466E
:104F40004246394630460094FFF781FFBDE8F88FAE
:104F50002DE9FC4704460D4616461F46DDE90A8941
:104F60003B46324629462046CDE90089FFF7C8FF77
:104F7000BDE8FC8730B504460D4629462046FFF7BC
:104F8000B9FEC04380B230BDF0B50646002700240C
:104F9000354619E069896868FFF7ACFE0444A0B2A1
:104FA00000EB1444688900EBD0714910A0EB41017B
:104FB00049B10FB9012000E000200746E0B2C4F378
:104FC000072141EA00242D68002DE3D127B1E0B28A
:104FD000C4F3072141EA0024E04380B2F0BD0000A1
:104FE00064656C657465206D6500000008B500207F
:104FF000009000BF6846804204D000BF09480BF013
:105000005DFB00BF00BF00BF00BF00F083F800F0F1
:10501000D3FB00F0A7FC07F0E1FE02F05FFA07F017
:10502000F0FD08BDD80E01080146F74800680844A5
:1050300070470146F4480088081A80B270472DE98D
:10504000F041044600BFF0480068844204D200BF2B
:10505000EEA00BF033FB00BF00BF00BFF1480068BB
:10506000844204D300BFF0A00BF028FB00BF00BFB8
:1050700000BF207920B100BFF2A00BF01FFB00BFE2
:1050800000BF00BF2088B0F5205F04D900BFF4A0A6
:105090000BF014FB00BF00BF2088FFF7C5FF0546DB
:1050A000AC4219D02879B8B9DE480068854213D0DF
:1050B000F6480068A84201D1F4480460288820809E
:1050C0002888B0F5205F07D02046FFF7B2FF0746DB
:1050D0002888FFF7A9FF47806088FFF7A5FF0646ED
:1050E000A64215D0307998B9E8480068A04201D1AD
:1050F000E6480660208830802088B0F5205F07D021
:105100003046FFF796FF07462088FFF78DFF478060
:10511000BDE8F08110B500BF00BFDD4820F00300FE
:10512000B9490860084604684FF4205020800020E8
:10513000608020714FF42050FFF776FFB949086076
:105140000120096808714FF42050B64909680880A9
:10515000B44909684880AC480068CC49086010BD73
:105160002DE9F04104462046FFF763FF05462088FD
:10517000FFF75AFF06466088FFF756FF074620886C
:10518000B0F5205F10D86088B0F5205F0CD860883B
:10519000A84202D03888A84206D1A24800688642B8
:1051A00005D07088A84202D00020BDE8F08101201F
:1051B000FBE770B5054615B900BF00BF70BD05F02F
:1051C000030058B100BF00BFB2A00BF077FA00BFD8
:1051D00000BF00BF00BF00BF00BFEFE7A5F108049C
:1051E00089480068844205D305F10C008D4909689F
:1051F00088420BD900BF00BFAFA00BF05FFA00BF21
:1052000000BF00BF00BF00BF00BFD7E7207958B97B
:1052100000BF00BFAFA00BF051FA00BF00BF00BF3E
:1052200000BF00BF00BFC9E72046FFF799FF58B98C
:1052300000BF00BFB1A00BF041FA00BF00BF00BF2C
:1052400000BF00BF00BFB9E7002020718F48006891
:10525000844201D28D4804602046FFF7F0FE00BF73
:10526000ACE72DE9F84F81468B460BF1030020F0A7
:10527000030085B20C2D00D20C25B5F5205F01D8B6
:105280005D4502DA0020BDE8F88F00BF5E48006887
:10529000814503D363480068814504D300BFA4A0BF
:1052A0000BF00CFA00BF00BF57480068814503D3DC
:1052B0005C480068814505D300BF00BF00BF00BF48
:1052C0004846E0E7A9F108063046FFF7B2FE074678
:1052D0003188C81B08381FFA80FA00BF554504DD25
:1052E00000BF99A00BF0EAF900BF00BF554501DDF2
:1052F0000020C8E7554501D14846C4E73088FFF78C
:1053000093FE0446207978BB00BF3088B0F5205F5B
:1053100004D100BF94A00BF0D1F900BF00BF2088DA
:10532000009007F1080028441FFA80F857480068E9
:10533000A04204D14046FFF777FE5449086040463A
:10534000FFF772FE044600202071009820806780DD
:10535000A6F800802088B0F5205F04D02088FFF7F1
:1053600063FEA0F802802EE0FFE705F1140050452F
:1053700029D807F1080028441FFA80F800BF3088B8
:10538000B0F5205F04D100BF77A00BF097F900BF04
:1053900000BF4046FFF748FE04463C480068844290
:1053A00001D23A4804600020207130882080678054
:1053B000A6F800802088B0F5205F04D02088FFF791
:1053C00033FEA0F8028048465DE72DE9F0478146AC
:1053D000B9F1000F02D10020BDE8F08709F1030008
:1053E00020F0030085B20C2D00D20C25B5F5205F0E
:1053F00001D84D4501DA0020EEE724480068FFF7A8
:1054000018FE06464BE10000C0010020706C756775
:105410005F686F6C65733A206D656D203E3D20724C
:10542000616D0000C4010020706C75675F686F6C6F
:1054300065733A206D656D203C2072616D5F656E0D
:1054400064000000706C75675F686F6C65733A206C
:105450006D656D2D3E75736564203D3D2030000007
:10546000706C75675F686F6C65733A206D656D2D44
:105470003E6E657874203C3D204D454D5F53495A42
:10548000455F414C49474E4544000000C80100209B
:10549000BBAD00206D656D5F667265653A20736116
:1054A0006E69747920636865636B20616C69676EEF
:1054B0006D656E74000000006D656D5F66726565F8
:1054C0003A20696C6C6567616C206D656D6F7279EF
:1054D000000000006D656D5F667265653A20696C5D
:1054E0006C6567616C206D656D6F72793A20646FD1
:1054F00075626C6520667265650000006D656D5FA4
:10550000667265653A20696C6C6567616C206D65D3
:105510006D6F72793A206E6F6E2D6C696E6B65647B
:105520003A20646F75626C652066726565000000E4
:105530006D656D5F7472696D3A206C6567616C2092
:105540006D656D6F727900006D656D5F7472696D68
:105550002063616E206F6E6C7920736872696E6B68
:10556000206D656D6F727900696E76616C6964207B
:105570006E65787420707472000000003046FFF78A
:1055800053FD0446207900287CD1218806F10800CB
:10559000081AA8427FD3218806F10800091A05F1EC
:1055A0001400814226D306F1080028441FFA80F82F
:1055B00000BFB8F5205F05D100BFAFF254000BF07B
:1055C0007DF800BF00BF4046FFF72EFD07460021D3
:1055D0003971218839807E80A4F8008001202071F3
:1055E0003888B0F5205F07D03888FFF71DFDA0F898
:1055F000028001E0012020713A480068844223D1F2
:105600003848D0F800A004E0BAF80000FFF70CFD1D
:1056100082469AF8040018B1334800688245F3D1F5
:105620003048C0F800A000BF00682F4909688842D0
:1056300008D02C480068007920B100BF2BA00BF0E7
:105640003DF800BF00BF00BF00BF04F108002844C0
:1056500025490968884204D900BF2BA00BF02EF819
:1056600000BF00BF00BF04F0030020B100BF32A0A4
:105670000BF024F800BF00BF00BF04F0030030B1FE
:1056800000BF00E007E038A00BF018F800BF00BF33
:1056900004F10800A0E63046FFF7C6FC0688C5F511
:1056A0002050B0423FF66AAF00BF00BF002093E633
:1056B0002DE9F04106460F4606FB07F4A0B2A042D2
:1056C00004D000BF00BF0020BDE8F081A0B2FFF70A
:1056D0007CFE05461DB1214628460AF092FE28466A
:1056E000F2E70000C8010020C40100206D656D5F75
:1056F0006D616C6C6F633A20216C667265652D3E3E
:1057000075736564000000006D656D5F6D616C6CA4
:105710006F633A20616C6C6F6361746564206D65C2
:105720006D6F7279206E6F742061626F7665207282
:10573000616D5F656E642E006D656D5F6D616C6C93
:105740006F633A20616C6C6F6361746564206D6592
:105750006D6F72792070726F7065726C7920616CF8
:1057600069676E65642E00006D656D5F6D616C6CC0
:105770006F633A2073616E69747920636865636B47
:1057800020616C69676E6D656E74000010B5002352
:10579000C46823608368DB1C23F00301002207E058
:1057A000C3681B680B60C368196083881944521C66
:1057B000C3889342F4DC10BD10B5002406E04349D1
:1057C00051F82400FFF7E2FF601C84B20C2CF6D3E2
:1057D00010BD70B50546E868046874B12068E968D2
:1057E000086000BF04F0030020B100BF38A00AF039
:1057F00065FF00BF00BF204670BD00BF00BF002096
:10580000FAE710B5044600BF24B900BF39A00AF07A
:1058100055FF00BF00BF0CB9002010BD2046FFF7A8
:10582000D8FFFAE770B5044600BF0C2C06DB00BFBA
:1058300035A00AF043FF00BF002070BD00BF234920
:1058400051F82400FFF7C5FF05462846F5E770B577
:1058500004460D4600BF05F0030020B100BF32A092
:105860000AF02CFF00BF00BF2E46E06800683060E1
:10587000E068066070BD70B504460D4600BF24B9EF
:1058800000BF1CA00AF01AFF00BF00BF04B105B999
:1058900070BD29462046FFF7DAFF00BFF8E770B574
:1058A00004460D4600BF0C2C05DB00BF26A00AF005
:1058B00005FF00BF70BD00BF05B9FBE7034951F804
:1058C00024002946FFF7C3FF00BFF3E7580C010887
:1058D0006D656D705F6D616C6C6F633A206D656DA9
:1058E000702070726F7065726C7920616C69676E80
:1058F00065640000696E76616C696420706F6F6C1E
:1059000020646573630000006D656D705F6D616C90
:105910006C6F633A2074797065203C204D454D5082
:105920005F4D4158000000006D656D705F667265E7
:10593000653A206D656D2070726F7065726C7920AC
:10594000616C69676E6564006D656D705F66726538
:10595000653A2074797065203C204D454D505F4D6F
:1059600041580000704770B505460C4600BF25B988
:1059700000BFFAA00AF0A2FE00BF00BF00BF24B91A
:1059800000BFFDA00AF09AFE00BF00BF94F82900F6
:1059900000F0180020B1214628460AF0B7FA70BD81
:1059A0002146284609F02AF9F9E770B504460D4664
:1059B00000BF24B900BFF7A00AF080FE00BF00BFFF
:1059C00094F8290000F0040020B194F8290000F0B8
:1059D000010000B970BD05F0010050B1606840B130
:1059E00094F8290000F0080018B1211D204608F0A5
:1059F0007EF800BFEEE770B504460D462946204606
:105A000003F0E1FA2946204607F087FF29462046A1
:105A100001F035FD70BDF8B505460C46164600BFD1
:105A200024B900BFE4A00AF049FE00BF00BF00BFD8
:105A300026B900BFE0A00AF041FE00BF00BF206809
:105A40006968884201D1012000E00020A0B92068E7
:105A500000906868306000BF00BF69463046FFF7BD
:105A6000CAFF0CB9002000E02068686001212846C8
:105A7000FFF79BFF0120F8BD0020FCE710B50346AF
:105A80000868DC68A04201D1012000E0002040B994
:105A900009B9002000E00868D86000BF00BF0120FD
:105AA00010BD0020FCE710B5034608689C68A042C2
:105AB00001D1012000E0002040B909B9002000E038
:105AC0000868986000BF00BF012010BD0020FCE7FF
:105AD0002DE9F84F80460C4615461E464FF000094A
